:100000000C9442020C9456020C9456020C94560224
:100010000C9456020C9456020C9456020C94560200
:100020000C9456020C945D1B0C9456020C94D2173F
:100030000C9456020C9456020C9456020C945602E0
:100040000C9456020C948F350C9456020C94560264
:100050000C9456020C9456020C9456020C941035D3
:100060000C9456020C94DF330C94E9300C94560235
:100070000C9456020C9456020C9456020C945602A0
:100080000C9456020C9456020C9456020C94FA16D8
:100090000C9456020C9456020C9456020C94560280
:1000A0000C9456020C9456020C9456020C94560270
:1000B0000C9456020C9456020C9456020C94560260
:1000C0000C9456020C9456020C9456020C94560250
:1000D0000C9456020C9456020C9456020C94560240
:1000E0000C9456021B072107240727072C07340707
:1000F0003C07DA07DA07DA0749074C0755075E07B6
:10010000DA07DA07DA07DA07DA07DA076A077407BD
:10011000800788078B0794079D07A307DA07DA078C
:10012000AC07B507C007F909B315B315030A100AE0
:100130001D0A2A0AB3152E0AB3153C0AB315460A3E
:10014000500A5A0AB315B315B3156A0A770A840A16
:1001500019341B34533453345334533453345334D9
:100160005334533453345334213423342534273413
:1001700029342B342D342F3453343334353437343D
:1001800039343B343D3453343F344134084AD73B4F
:100190003BCE016E84BCBFFDC12F3D6C74319ABD56
:1001A00056833DDA3D00C77F11BED9E4BB4C3E917A
:1001B0006BAAAABE000000803F05A84CCDB2D44E69
:1001C000B93836A9020C50B9918688083CA6AAAA6B
:1001D0002ABE000000803F000C9421340C94B50727
:1001E0000C9494070C94840A0C945E070C942B34A2
:1001F0000C9437340C9424070C94C0070C945507C6
:100200000C943C070C946A0A0C94AC070C942707D6
:100210000C9425340C94B3150C949D070C94500A3F
:100220000C9435340C9427340C942A0A0C944134E1
:100230000C9423340C943F340C94DA070C94490743
:100240000C941D0A0C94030A0C946A070C94F90987
:100250000C945A0A0C942F340C9429340C94333493
:100260000C9419340C942E0A0C943C0A0C94340708
:100270000C942C070C943D340C943B340C94A30741
:100280000C9453340C941B340C9421070C948B075E
:100290000C9480070C94770A0C944C070C94740708
:1002A0000C9439340C9488070C94460A0C941B0760
:1002B0000C94100A0C942D340D0A4772626C203194
:1002C0002E3166205B27242720666F722068656CBC
:1002D000705D0D0A00244E005B4F50543A005B568F
:1002E00045523A312E31662E323031373038303285
:1002F0003A005B544C4F3A005B4739323A00333096
:10030000003238005B4700204700204D002053009A
:1003100020460020540033382E005B47433A470004
:100320005B484C503A24242024232024472024498D
:1003300020244E2024783D76616C20244E783D6C3C
:10034000696E6520244A3D6C696E652024534C50CB
:10035000202443202458202448207E2021203F2090
:100360006374726C2D785D0D0A00536C656570695D
:100370006E6700526573746F72696E67207370697F
:100380006E646C6500526573746F72696E67206489
:10039000656661756C74730050676D20456E64000E
:1003A000436865636B204C696D69747300436865CD
:1003B000636B20446F6F720044697361626C6564A3
:1003C00000456E61626C65640043617574696F6EAF
:1003D0003A20556E6C6F636B656400272448277C58
:1003E0002724582720746F20756E6C6F636B005242
:1003F0006573657420746F20636F6E74696E7565C4
:10040000005B4D53473A000D0A005B5052423A00E0
:100410006572726F723A006F6B0D0A00414C415267
:100420004D3A007C413A007C4F763A007C57434F6E
:100430003A007C506E3A007C46533A007C4C6E3A4F
:10044000007C42663A007C57506F733A007C4D50F6
:100450006F733A00536C65657000446F6F723A00B9
:10046000436865636B00416C61726D00486F6D6538
:10047000004A6F6700486F6C643A0052756E00491D
:10048000646C650011241FBECFEFD1E2DEBFCDBF8B
:1004900000E00CBF2FE0A0E0B2E001C01D92AF3041
:1004A000B207E1F70E9458020C94713D0C940000D1
:1004B000CF93DF93CDB7DEB765970FB6F894DEBF65
:1004C0000FBECDBF8091C00082608093C0001092AB
:1004D000C50080E18093C4008091C1008869809349
:1004E000C10080E090E00E94ED288A3009F09DC5AF
:1004F00045E550E061E070E08BE292E00E94F52873
:10050000892B09F492C581B18C6181B9279A87B191
:10051000806E87B9809181008F7E80938100809169
:100520008100886080938100809180008C7F80931F
:100530008000809180008F708093800080916E0099
:10054000887F80936E0014BC15BC80916E00816022
:1005500080936E0080910701807F809307018091D6
:1005600008018F608093080180916D008F608093F7
:100570006D00809168008460809368008CE0E1E009
:10058000F2E0DF011D928A95E9F7789410921A0241
:100590008091700284FF03C081E080931A02BAE167
:1005A0002B2EB2E03B2E10E8C12E12E0D12E80910E
:1005B0001A02F10121E111922A95E9F780931A02BA
:1005C00084E68093210280932202809323028CE0B0
:1005D000ADE0B2E01D928A95E9F7109219021092EF
:1005E000B10A1092B20A1092B30A1092B40A809122
:1005F000B60A8093B70A80E4F60111928A95E9F76A
:1006000064EA72E080E00E943B29811103C087E028
:100610000E9497190E947E3380910101806280932D
:100620000101809101018064809301010E942D31BC
:100630000E94B01B809107018F7780930701809102
:10064000080180688093080180E00E9414181092CD
:1006500091001092900080919100887F816080933A
:10066000910080919100836080939100809171004E
:100670008E7F809371000E9408260E945C350E9444
:10068000F81B0E94B73388EB92E00E948419809196
:10069000700283FF11C00E94901B882369F081E0E3
:1006A00080931A0281E094E00E94841980EA93E02A
:1006B0000E9484190E942E1B80911A02817891F069
:1006C00081E094E00E9484198BED93E00E948419EC
:1006D0000E942E1B81E080931A0210E000E0A2E04D
:1006E000EA2E31C010921A020E94BE1780FF07C086
:1006F0008091B10A80628093B10A0E9433320E94D5
:10070000AB19EBCFE92FF0E0ED51F44F80819F5F03
:100710009093B70A8F3FE9F08A3021F50E94333277
:1007200080911B02811143CFE12FF0E0E15FF14F97
:100730001082F02FF170FF2E00FF18C08BE00E9496
:10074000971910E000E09091B70A8091B60A8913DA
:10075000D9CF0E94E1300E94333280911B0288235E
:1007600091F325CF8D3009F03AC4D8CF80910F0E88
:10077000882309F431C4843209F026C421E0298B8E
:100780008091100E833409F134F4882361F08432AF
:1007900009F019C11AC08A3459F08835B1F087348C
:1007A00009F011C112C080E293E00E9484190AC4CA
:1007B00080911A028F7D09F0F2C38091110E8D3362
:1007C00009F0F8C30E941E08F0C39091110E911118
:1007D000F1C3833409F4BBC01CF4843239F0F2C392
:1007E000873469F0883509F4D2C0ECC380911A02CD
:1007F0008871F82E09F0D3C30E941C1AE3C38AE162
:1008000093E00E948419809180028C3838F086E150
:1008100093E00E948419809180028A580E945E1998
:1008200087E093E00E948419809186028A5C0E948E
:100830005E1987E093E00E948419809184028F5EA4
:100840000E945E1987E093E00E94841980918202E1
:1008500035E1381B832F0E945E1987E093E00E94E8
:10086000841980918302865A0E945E1987E093E082
:100870000E948419809181029EE5981B892F0E9415
:100880005E1980918702882399F08AE093E00E94A4
:10089000841980918702833029F08E3139F08230BB
:1008A00039F404C080E30E94143102C00E945E1932
:1008B0008AE093E00E94841980918902803131F0AE
:1008C000803231F0811107C085E303C083E301C0AA
:1008D00084E30E9414318AE093E00E94841980919D
:1008E0008802882359F087FF03C087E30E941431F0
:1008F0008091880286FF05C088E301C089E30E94D9
:10090000143183E193E00E948419809193020E9444
:100910005E1980E193E00E94841960918F027091CA
:10092000900280919102909192020E94C3188DE0F2
:1009300093E00E94841960918B0270918C028091E7
:100940008D0290918E0240E00E9425180EC0809189
:100950001A02823069F40E94BD3381E094E00E9463
:10096000841988EB93E00E9484190E942E1B2AC3ED
:10097000811115C3E0921A0281E094E00E9484196B
:1009800081EC93E00E9484190E942E1B45C0809147
:100990001A02813009F016C30E94BE17A82FA17059
:1009A000FA2E80FF03C0FDE0FF2E0CC381E094E02F
:1009B0000E94841989EC93E00E9484190E942E1BE6
:1009C00010921A02FFC290911A02923008F0E7C208
:1009D000893409F4A4C034F4833271F0883409F402
:1009E0005AC04CC1823509F4F3C0833509F485C07F
:1009F0008E3409F043C11CC18091110E8111DAC2FD
:100A000010E0BE016F5F7F4F812F0E943B29811153
:100A100005C087E00E949719F12CD4C284E093E0CE
:100A20000E948419163029F0173041F48EEF92E0BD
:100A300002C081E093E00E94841904C086E3810F24
:100A40000E945E198AE30E941431CE0101960E9431
:100A5000E1180E942E1B1F5F183099F688EF92E074
:100A60000E94841980EB92E00E94E1180E942E1BE4
:100A700082EF92E00E9484196091BC027091BD02E5
:100A80008091BE029091BF020E94D2180E942E1B3C
:100A90000E94331B97C28091700284FF7DC20E9426
:100AA000BE1780FD80CFB4E0B0931A028091110E82
:100AB000811180C20E94A51B84E00E946E1F83E00A
:100AC0000E946E1F0E94333280911B02811106C06A
:100AD0000E94B7330E94F81B0E94B01B80911B023A
:100AE000811170C210921A020E9426358091110E57
:100AF000811168C20E94AB198FCF8091110E8C3486
:100B000009F058C28091120E803509F053C28091CD
:100B1000130E81114FC280E80E942D1753C2E98A3B
:100B20008091110E811136C040E051E06EEA73E011
:100B30008FE09EE00E94F528892B51F410920F0E51
:100B400040E051E06FE07EE08EEA93E00E945F2794
:100B50008EED92E00E9484190E94C7160E942E1BFF
:100B600088ED92E00E94841986E50E9414318EE49B
:100B70000E9414318DE40E9414318CE20E941431E1
:100B800083E20E945E198CE20E9414318FEF0E9472
:100B90005E19EBCEE3E0E98B8D3309F00BC283E005
:100BA000282F30E0F901E15FF14F9081D901A45F76
:100BB000B14F9C938F5F90819111F2CF898B40E070
:100BC00051E06FE07EE08EEA93E00E945F27FAC179
:100BD0008091110E833509F0EDC18091120E84359C
:100BE00009F0E8C18091130E8D3309F0E3C18091C3
:100BF000150E8111DFC18091140E843239F08A32D2
:100C000039F0833209F0D6C182E003C081E001C02F
:100C10008FEF0E94C62781E094E00E94841985E846
:100C200093E00E9484190E942E1B0E94BD33CAC10A
:100C3000E98A8091110E81111DC010E0812F0E9460
:100C4000D416811104C087E00E9497190EC085ED6B
:100C500092E00E948419812F0E945E198DE30E9408
:100C600014310E94C7160E949319113009F4AAC1C9
:100C700011E0E4CF911193C111E001C010E0BE0179
:100C8000635F7F4FCE0141960E94EE37811103C012
:100C9000E2E0FE2E97C1E98981E08E0F898BF0E0BA
:100CA000E15FF14F90819D3309F084C11123D9F1A7
:100CB000482F50E0282F30E0F901E15FF14F90819B
:100CC000241B350BD901A15FB14F9C938F5F90819D
:100CD0009111F0CF898B813508F064C10E941E0804
:100CE000811163C16D857E858F8598890E94DA3C6C
:100CF0006A8B7B8B8C8B9D8B0E9445336A897B89A9
:100D00008C899D890E94183A21E031E0629FC001E0
:100D1000639F900D112440E051E06FE07EE09D5F05
:100D20000E945F2779CEBE016F5F7F4FCE01419653
:100D30000E94EE37882309F4ABCFE989F0E0E15F48
:100D4000F14F8081811136C18D849E84AF84B88833
:100D500020E030E04FE753E4C501B4010E94B73B07
:100D600018160CF427C149805A806B807C80C5011D
:100D7000B4010E94183A062F20E030E0A901C30117
:100D8000B2010E94953987FD12C1043608F441C0B2
:100D9000045680E00330A0F510E0000F111F000F93
:100DA000111F823079F0F801833019F1813019F088
:100DB000E55DFD4F02C0E95CFD4F408251826282D9
:100DC0007382E7C00D5B1D4F20E030E040E752E446
:100DD000C301B2010E94F73B20E030E040E752E45B
:100DE0000E94F73BD8016D937D938D939C9313974D
:100DF000D0C0E15BFD4F77FA709477F87094DDCF47
:100E00008F5F0A3008F4D6C0843009F4D3C00A508A
:100E1000C1CFC301B2010E94DA3C0E94183A10E02F
:100E20000132110508F0C6C0F8018827EE58FF4FBF
:100E30008F4F0C94423D633008F4BFC060935B0257
:100E4000A8C060935E02A5C060935C0202C060937C
:100E50005D020E94F6349DC080917002662311F0FD
:100E6000846095C08B7F93C080917002662311F0DF
:100E700080648DC08F7B8BC080917002662311F0DF
:100E8000806801C08F778093700280E00E94141800
:100E900080C060935F027DC0409260025092610208
:100EA000609262027092630274C040926402509237
:100EB000650260926602709267026BC08091700258
:100EC000662311F0816001C08E7F809370020E94C2
:100ED000B9175FC080917002662321F084FF70C053
:100EE000806255C08F7D53C080917002662311F0DF
:100EF000886001C0877F809370020E94B01B49C048
:100F000080917002662311F0806141C08F7C3FC0E8
:100F1000609371023EC040927202509273026092DE
:100F200074027092750235C0409276025092770238
:100F300060927802709279022CC070E070937B020C
:100F400060937A0226C040927C0250927D026092A9
:100F50007E0270927F021DC0409268025092690228
:100F600060926A0270926B0208C040926C025092CA
:100F70006D0260926E0270926F020E947E3309C011
:100F800080917002662311F0826001C08D7F809392
:100F900070020E949E2716C065E0F62E13C058E02E
:100FA000F52E10C04EE0F42E0DC0F82E0BC034E02C
:100FB000F32E08C023E0F22E05C096E0F92E02C001
:100FC0008AE0F82E8F2D08C080911A02817211F0EC
:100FD00089E0B5CB0E941E080E94A319B2CB002362
:100FE00029F0893209F0AFCB0D7FADCB813208F407
:100FF000AACB8F3209F4A7CB883289F08B3389F0E2
:101000001F3F89F0212F30E01F5F9FE9980FF90102
:10101000E15FF14F9A3108F48052808394CB02E073
:1010200092CB04E090CB01E08ECB87E00E94971931
:101030008FEF0E94C6270E941C1A65CA2F923F920A
:101040004F925F926F927F928F929F92AF92BF92D8
:10105000CF92DF92EF92FF920F931F93CF93DF9384
:10106000CDB7DEB7CE54D1090FB6F894DEBF0FBEB0
:10107000CDBF8AE3E0ECF2E0DF011D928A95E9F74B
:101080008BE0E0E8F2E0A1ECB2E001900D928A95ED
:10109000E1F780910F0E843211F00C94D71581E0A6
:1010A0008093C1021092C20283E08E8FB1E0BFA391
:1010B000212C312C1CAA1BAAC12C1F8E1BA2DD24A3
:1010C000D3946AE0A62EB12C0EE571E6872E73E06C
:1010D000972E8E8DE82FF0E0E15FF14FE080EE205B
:1010E00009F444C29FEB9E0D9A3110F00C94A315A5
:1010F0008F5F8E8FBE01665E7F4FCE014E960E943F
:10110000EE37882311F40C94A5154A8C5B8C6C8CFB
:101110007D8CC301B2010E94DA3C0E94183A162F5E
:1011200070E080E090E00E94493A9B01AC01C3016D
:10113000B2010E949F3820E030E048EC52E40E9467
:10114000F73B0E94643C0E94183ACB01E7E4EE169C
:1011500029F0FDE4EF1609F4EAC038C1183209F4A9
:10116000C5C020F5143168F4113108F08AC014307C
:1011700009F452C008F464C01A3009F445C00C9454
:10118000B3151C3109F440C050F4163110F00C9422
:10119000B31525E1211B2093C30226E0ACC01E310C
:1011A00099F1163209F44CC00C94B3151D3309F4AF
:1011B00097C0A8F4153381F140F41B3209F47AC0CA
:1011C000113309F477C00C94B3151C3310F00C9450
:1011D000B3156AEC610F6093C70229E08CC01C351F
:1011E00038F41A3508F053C0103581F10C94B3155A
:1011F0001C3551F01F3510F00C94B315202F211B16
:101200002093C20225E077C0009731F42BA1211171
:101210000C94A71531E03BA31093C002212F2D7F22
:101220002C3119F01C3509F063C0009721F00A97A2
:1012300011F00C94B315610F6093C00220E060C000
:101240006BA161110C94A715A2E0ABA31093C1028E
:10125000163209F04FC08431910559F08E31910555
:1012600041F08832910529F08233910511F00C94F8
:10127000B315B5010E940C3D66576093C10221E091
:101280003FC06FEE610F6093C50222E034C0892B2E
:1012900031F466EA610F6093C40223E031C06A3022
:1012A000710511F00C94B3151A3511F40C94B315A3
:1012B00024E026C0BBA1B1110C94A715113331F461
:1012C0001092C60228E0E3E0EBA31AC00A9711F0DF
:1012D0000C94B315D092C60228E0F3E0FBA310C033
:1012E000892B11F00C94B3152AE00AC027E003C043
:1012F00020E001C021E0892B19F087E10C94DB1577
:1013000081E090E002C0880F991F2A95E2F72BA98F
:101310003CA928233923232B19F085E10C94DB15F4
:101320002BA93CA9282B392B3CAB2BABD2CE892B3C
:1013300021F7163018F4133058F016C0173010F497
:101340000C94B3151A30F0F01E3159F00C94B3150B
:10135000112319F0113021F104C033E03093C80299
:101360001FC01093C8021CC0143021F0153031F09A
:1013700080E101C080E28093CA0202C01092CA02DA
:101380008CE00FC0183021F0193031F080E801C036
:1013900080E48093C90202C01092C9028DE001C0AE
:1013A0008BE0A1E0B0E002C0AA0FBB1F8A95E2F774
:1013B0002BA93CA92A233B23232B09F0AECFEBA971
:1013C000FCA9EA2BFB2BFCABEBAB83CE8E2DEE0CFA
:1013D000990BAA0BBB0BFC01E654F109E531F105B1
:1013E00010F00C94B3158827ED56FF4F8F4F0C94D7
:1013F000423D4092CC025092CD026092CE02709259
:10140000CF0280E08DC04092D0025092D102609213
:10141000D2027092D302FC2DF160CF2E81E080C009
:101420004092D4025092D5026092D6027092D702B6
:101430002C2D2260C22E82E073C04092D8025092BE
:10144000D9026092DA027092DB023C2D3460C32E26
:1014500083E066C01093DC0284E062C0C301B20185
:101460000E94113A6093DD027093DE028093DF02E6
:101470009093E00285E054C04092E1025092E20273
:101480006092E3027092E40286E04AC04092E50274
:101490005092E6026092E7027092E80287E040C054
:1014A0004092E9025092EA026092EB027092EC02E2
:1014B00088E036C020E030E04FE753E4C301B201DA
:1014C0000E94B73B181614F40C94A9151093ED0262
:1014D00089E026C04092EE025092EF026092F00244
:1014E0007092F1026F8D61606F8F8AE019C0409237
:1014F000F2025092F3026092F4027092F5028F8D24
:1015000082608F8F8BE00CC04092F6025092F702FF
:101510006092F8027092F9029F8D94609F8F8CE028
:10152000EE24E394F12C082E02C0EE0CFF1C0A946A
:10153000E2F7970122213321232B11F00C94AB15F4
:10154000D40102C0B595A7958A95E2F7A0FF0BC01C
:1015500020E030E0A901C301B2010E94953987FF64
:1015600002C00C94AD152E283F28B3CDBF8DBB23F0
:1015700029F0EBA1E11102C0F2E0FBA325FE0FC0B0
:101580008091DD029091DE02A091DF02B091E00235
:1015900081389649A849B10514F00C94AF153FA1C4
:1015A000332301F120FC02C00C94B9158091C302D1
:1015B000813009F03FC023E333E34BEC51E4609109
:1015C000CC027091CD028091CE029091CF020E9408
:1015D000F73B6093CC027093CD028093CE02909340
:1015E000CF0228C08091C202813071F46BA16230B9
:1015F00009F58091C1028035E9F08823D9F020FCFB
:1016000002C00C94B91516C080918102811112C0DC
:1016100020FCCCCF80918F0290919002A0919102FA
:10162000B09192028093CC029093CD02A093CE020F
:10163000B093CF0230FC10C080918B0290918C024D
:10164000A0918D02B0918E028093E9029093EA02FC
:10165000A093EB02B093EC028091C002843039F485
:1016600026FC03C08CE10C94DB15E89426F88091ED
:10167000C502882369F0813029F48FAF19AE92E05A
:101680009FAB0BC01FAEA2E0A9AFB1E0BFAB05C0DE
:10169000E2E0EFAFF1E0F9AF1FAA8091C302813021
:1016A00021F02BA12330A9F52BC04EEEE42E42E011
:1016B000F42E00E010E03F8DA32EB12CC501002ECA
:1016C00002C0959587950A94E2F780FF10C023E346
:1016D00033E34BEC51E4D7016D917D918D919C9159
:1016E0000E94F73BF70160837183828393830F5FCE
:1016F0001F4FF4E0EF0EF11C03301105F9F6D1CFC6
:101700008091C602813029F42F8D243011F00C9481
:10171000B1158CE0E4EAF2E0DE011E9601900D9234
:101720008A95E1F78BA99CA991FD09C09091C0020F
:101730009BA79A30C9F09C3509F4AFC010C18091C5
:10174000C702873018F08DE10C94DB15909186026A
:10175000981761F3BE01625F7F4F0E943B29882387
:1017600011F40C94C715E2CFAF8DA11103C08AE12B
:101770000C94DB15C10180759927892B09F472CF70
:101780006091E1027091E2028091E3029091E402A3
:101790000E94DA3C0E94183A6730A8F68091DC0279
:1017A000843141F0823011F00C94B31527FE02C051
:1017B0000C94B315BFEA2B22662319F0615069AB74
:1017C00003C0E091C702E9AB60ED72E089A90E9415
:1017D0003B29882311F40C94C715D090DC0240906B
:1017E000BC025090BD026090BE027090BF0200ED3E
:1017F00012E038E9A32E32E0B32EE12CF12CFF8D5C
:101800008F2E912CC4010E2C02C0959587950A94B9
:10181000E2F780FF34C024E1D21228C0D5015896E7
:101820002D913D914D915C915B976D917D918D9145
:101830009C910E949F38F801268D378D40A151A1BF
:101840000E949F38D8016D937D938D939C9313973D
:10185000B2E0EB16F10499F4A30192010E949F38C3
:10186000F801608371838283938309C0F801868DB8
:10187000978DA0A1B1A180839183A283B383FFEF51
:10188000EF1AFF0A0C5F1F4F24E0A20EB11C33E0D9
:10189000E316F10409F0B6CF30C16F8D662309F469
:1018A00066CF4090BC025090BD026090BE02709026
:1018B000BF020EEE12E0A12CB12CE12CF12C862EF1
:1018C000912CF501E058FD4FC4010E2C02C09595F6
:1018D00087950A94E2F780FF2BC0AEE0B0E0AC0F32
:1018E000BD1FAA0DBB1D2D913D914D915C91608D49
:1018F000718D828D938D0E949F38D8012D913D91DD
:101900004D915C910E949F38F801608371838283BE
:101910009383F2E0EF16F104A1F4A30192010E9477
:101920009F38D8016D937D938D939C93139709C035
:1019300080A991A9A2A9B3A9F80180839183A28368
:10194000B383FFEFEF1AFF0A24E0A20EB11C0C5F75
:101950001F4F33E0E316F10409F0B3CFCDC06BA104
:10196000633071F48BA58E3109F48CC0853309F492
:10197000BDC08C3109F0C0C060ED72E086E085C06A
:101980009F8D992379F3D090C4024090BC0250906F
:10199000BD026090BE027090BF0228E9A22E22E034
:1019A000B22E0EEE12E04E01AEE08A0E911CE12C3A
:1019B000F12CE92FF0E0FAABE9AB89A99AA90E2C3A
:1019C00002C0959587950A94E2F780FD0BC0F5015A
:1019D00080819181A281B381F80180839183A28368
:1019E000B3833FC0FBA5F533E1F1D11029C0D50188
:1019F00058962D913D914D915C915B97F4016081DA
:101A00007181828193810E94A038D8012D913D91EE
:101A10004D915C910E94A038F801608371838283AC
:101A20009383F2E0EF16F104E1F4A30192010E9426
:101A3000A038D8016D937D938D939C93139711C01B
:101A4000F5012081318142815381D8016D917D91D1
:101A50008D919C910E94A038F801608371838283EC
:101A60009383FFEFEF1AFF0A24E0A20EB11C0C5F74
:101A70001F4F34E0830E911C63E0E616F10409F079
:101A80009CCF70CF60ED72E087E00E943B298823F5
:101A900011F40C94C7158F8D811103C019AA1BA2D4
:101AA0002CC020E030E080E090E0AF8D4A2F50E085
:101AB000BA01082E02C0759567950A94E2F760FD99
:101AC0000EC0F901E058FD4F808C918CA28CB38C34
:101AD000F901E054FD4F808A918AA28AB38A019667
:101AE0002C5F3F4F8330910519F706C08091C102EA
:101AF000823010F00C94B51519AAB091C102BBA7A1
:101B0000B03529F4EF8DE1110C94B71574C2FBA127
:101B1000F23009F070C22BA5211104C03F8D3111A4
:101B20006AC22BC020E030E0A9016091CC02709124
:101B3000CD028091CE029091CF020E9495398823E8
:101B400011F40C94B9156BA56C3809F43EC240F43D
:101B50006230A9F06330B1F0613009F04CC20AC0C4
:101B60008BA58E3809F431C208F42CC28F3809F4E1
:101B700029C241C29F8D91113EC21BA23CC2AFA19E
:101B8000A460AFA3BF8DBB2309F4F1CDEFA90E2F45
:101B900010E039AD232F30E03EA72DA781E090E083
:101BA0007C0109AC02C0EE0CFF1C0A94E2F702C0F3
:101BB000880F991FEA95E2F7E82AF92A8B2F90E01F
:101BC0008E219F21892B09F4D6C7F801EE0FFF1F44
:101BD000EE0FFF1FE054FD4FD801AA0FBB1FAA0F45
:101BE000BB1FA856BD4F2D913D914D915C9166A5AF
:101BF00077A580A991A90E949F384B015C01EDA5B2
:101C0000FEA5EE0FFF1FEE0FFF1FE054FD4FADA529
:101C1000BEA5AA0FBB1FAA0FBB1FA856BD4F2D9173
:101C20003D914D915C9166A577A580A991A90E94EF
:101C30009F386BAF7CAF8DAF9EAF310160E86622FD
:101C4000772427FEEFC0E89427F84CE050E06EEED2
:101C500072E088E992E00E94643D892B11F481E2F0
:101C6000AAC78091C3028130B1F423E333E34BEC84
:101C700051E46091E5027091E6028091E702909153
:101C8000E8020E94F73B6093E5027093E6028093BE
:101C9000E7029093E8024090E5025090E6026090DF
:101CA000E7027090E802A5019401C501B4010E9409
:101CB000F73B27966CAF7DAF8EAF9FAF27972BADCD
:101CC0003CAD4DAD5EADCA01B9010E94F73B2B960C
:101CD0006CAF7DAF8EAF9FAF2B9720E030E040E838
:101CE00050E4C301B2010E94F73BA30192010E949C
:101CF000F73B27962CAD3DAD4EAD5FAD27970E94CB
:101D00009F382B962CAD3DAD4EAD5FAD2B970E940D
:101D10009F386B017C0120E030E0A9010E949539D9
:101D200087FD2BC7C701B6010E94963C6B017C0161
:101D30002B962CAD3DAD4EAD5FAD2B9727966CAD80
:101D40007DAD8EAD9FAD27970E94A0380E94963C36
:101D50009B01AC01C701B60190580E949F396B01ED
:101D60007C018BA5833021F4F7FAF094F7F8F09416
:101D700020E030E0A901C301B2010E94953987FF3C
:101D80000FC0F7FAF094F7F8F094D301C201B058FD
:101D90008093E5029093E602A093E702B093E802F5
:101DA000000F111F000F111F00531D4FA7019601B7
:101DB0006BAD7CAD8DAD9EAD0E94F73B9B01AC0140
:101DC000C501B4010E949F3820E030E040E05FE3AD
:101DD0000E94F73BD8016D937D938D939C9313974D
:101DE0000DA51EA5000F111F000F111F00531D4F41
:101DF000A7019601C501B4010E94F73B9B01AC010C
:101E00006BAD7CAD8DAD9EAD0E94A03820E030E082
:101E100040E05FE30E94F73BF801608371838283B7
:101E20009383E9C0D12CEC20FD20EF2809F4A7C64C
:101E3000F1EF2F228091C302813009F47CC0F801B8
:101E4000EE0FFF1FEE0FFF1FE053FD4FC080D1804C
:101E5000E280F380A7019601C501B4010E949F387A
:101E60002B013C01EDA5FEA5EE0FFF1FEE0FFF1F9E
:101E7000E053FD4F80819181A281B3818DA79EA700
:101E8000AFA7B8AB9C01AD016BAD7CAD8DAD9EAD88
:101E90000E949F384B015C01A3019201C301B20172
:101EA0000E94F73B2B013C01A5019401C501B4013F
:101EB0000E94F73B9B01AC01C301B2010E94A03814
:101EC0000E94963C4B015C01A7019601C701B60137
:101ED0000E94F73B6B017C012DA53EA54FA558A99B
:101EE000CA01B9010E94F73B9B01AC01C701B601D1
:101EF0000E94A0380E94963C6B017C016093E50231
:101F00007093E6028093E7029093E8029B01AC0194
:101F1000C501B4010E949F384B015C01E894B7F8F9
:101F20002AE037ED43EA5BE3C501B4010E94B73B09
:101F300018165CF160C090ECE92E92E0F92EC60113
:101F4000062C02C0959587950A94E2F780FF12C08F
:101F500023E333E34BEC51E4D70150966D917D912F
:101F60008D919C9153970E94F73BF701608B718B89
:101F7000828B938BFFEF6F1A7F0A24E0E20EF11C35
:101F800033E063167104D9F65ACF20E030E040E028
:101F90005FE3C501B4010E94B73B18160CF45FCE95
:101FA0002FE632E143E85AE3C701B6010E94F73B4E
:101FB0009B01AC01C501B4010E94B73B18160CF49B
:101FC0004ECE19C06FA160616FA38BA58E58823071
:101FD00018F48FA188608FA39F8D992309F4C7CB34
:101FE0004CE050E06EEE72E088E992E00E94643DC1
:101FF000892B09F434CE2FA12170AFA1C101A0FF1C
:1020000002C08E7D02C08E7D9C7FBBA1B111937EEC
:10201000892B09F0B6C58E010F5F1F4F8DE0F801C7
:1020200011928A95E9F7222309F457C08BA99CA93C
:10203000867B892B09F0A7C58091C002853311F0FA
:102040008111A1C580918B0290918C02A0918D028B
:10205000B0918E028D839E83AF83B8879091890261
:1020600080918802892B4091CC025091CD026091E1
:10207000CE027091CF0249835A836B837C83846044
:102080008D878091DD029091DE02A091DF02B091F8
:10209000E00289879A87AB87BC878091700285FFB1
:1020A00006C08EEE92E00E94361781116EC5B8010F
:1020B0008EEE92E00E94663480911A02811169C509
:1020C0000E946821892B09F464C580E280931A027A
:1020D0000E945C290E94D6375CC580917002F09006
:1020E000890281FF26C09BA59150933018F0FFA173
:1020F000F064FFA32F8D222339F03BA1323021F46D
:102100006FA160686FA315C080E1F81212C09091B2
:10211000800291508FA18074933030F4882349F06D
:102120009FA190629FA305C0811103C0AFA1A062CF
:10213000AFA38091DD029091DE02A091DF02B09109
:10214000E0028093940290939502A0939602B0933C
:10215000970289879A87AB87BC878091C202809358
:102160008102882311F088E08D878091CC029091C4
:10217000CD02A091CE02B091CF0280938F029093B6
:102180009002A0939102B093920289839A83AB83C9
:10219000BC838090E9029090EA02A090EB02B0909C
:1021A000EC02A501940160918B0270918C028091E8
:1021B0008D0290918E020E949539BFA1B074EB2ED2
:1021C000811103C0EFA1E5FF20C0FF2071F0FFA146
:1021D000F7FD0BC0EE2021F040E050E0BA0102C054
:1021E000B501A4018F2D0E9456338091E902909190
:1021F000EA02A091EB02B091EC0280938B029093E3
:102200008C02A0938D02B0938E02E1100CC08091DD
:102210008B0290918C02A0918D02B0918E028D83E1
:102220009E83AF83B8878091ED0280939302809163
:10223000CA0290918902981751F04D815E816F8199
:1022400078850E9456338091CA02809389029D85C9
:1022500080918902892B8D878091C9029091880293
:102260009817D1F090911A02923051F02F968FAFBB
:102270002F970E9445332F968FAD2F970E943631AE
:102280008091C902811103C01092880205C090910B
:102290008802892B809388029D8580918802892BF2
:1022A0008D878091C002843049F56091E102709180
:1022B000E2028091E3029091E40220911A0222301E
:1022C000E9F02C966FAF2C972D967FAF2D972F9618
:1022D0008FAF2F972E969FAF2E970E94453340E0E9
:1022E0002C966FAD2C972D967FAD2D972F968FAD99
:1022F0002F972E969FAD2E970E94C71B8091C502E7
:10230000809384028091C302809382022BA12330A8
:1023100071F58091C60280938502811108C01092E8
:10232000F6021092F7021092F8021092F902C09091
:10233000F602D090F702E090F802F090F902A701BF
:1023400096016091BC027091BD028091BE02909195
:10235000BF020E949539882351F0C092BC02D092EE
:10236000BD02E092BE02F092BF020E94B9178091B6
:10237000C70290918602981769F0809386028CE0DC
:10238000FE013E96A4EAB2E001900D928A95E1F733
:102390000E94B9178091C402809383028091C00289
:1023A0008632F1F138F48C3109F18E31F9F08A304E
:1023B00069F04FC08C35D1F1863609F441C08832BE
:1023C00009F047C068E972E087E02DC060ED72E077
:1023D00089A90E94AB278091860239A9831339C04D
:1023E0008CE0E0EDF2E0A4EAB2E025C08D858160EA
:1023F0008D876BA1662329F0B8018EEE92E00E94D2
:102400006634B80180ED92E00E9466348CE0E0ED25
:10241000F2E0A8E9B2E001900D928A95E1F719C0C7
:1024200068E972E086E00E94AB2713C08CE0EEEE14
:10243000F2E0A0EBB2E001900D928A95E1F707C0BF
:102440008CE0E0EBF2E0DF011D928A95E9F70E9453
:10245000B9178091C10280938002803509F425C3A9
:10246000BBA1B23009F021C3813021F4BE016F5FFE
:102470007F4F06C0811109C08D8581608D87B801AD
:102480008EEE92E00E94663407C38250823008F0DC
:102490009BC28091E5029091E602A091E702B09183
:1024A000E8028BA39CA3ADA3BEA3AFA994E0A99F10
:1024B00070011124F701E856FD4FFCA7EBA7970127
:1024C00020533D4F3AAB29ABD9014D905D906D90B3
:1024D0007C902081318142815381C301B2010E94ED
:1024E000A0386BAB7CAB8DAB9EABE9ADB4E0EB9FA2
:1024F00080011124980128563D4F38AF2FABC801F9
:1025000080539D4F9AAF89AFDC018D909D90AD9027
:10251000BC90F9012081318142815381C501B40110
:102520000E94A0386BAF7CAF8DAF9EAF77FA7094EE
:1025300077F87094D501C401B0588F8F98A3A9A3E0
:10254000BAA3F701E251FD4F2BA93CA94DA95EA901
:1025500060817181828193810E949F386B017C012F
:10256000F801E251FD4F2BAD3CAD4DAD5EAD60814C
:102570007181828193810E949F384B015C01A70188
:102580009601C301B2010E94F73B6DA77EA78FA7FA
:1025900098ABA50194016F8D78A189A19AA10E94A1
:1025A000F73B9B01AC016DA57EA58FA598A90E9464
:1025B000A0386DA77EA78FA798ABA5019401C30192
:1025C000B2010E94F73B4B015C01A70196016F8DA0
:1025D00078A189A19AA10E94F73B9B01AC01C5019A
:1025E000B4010E949F382DA53EA54FA558A90E9471
:1025F0001F396B017C019FA192FF13C02DEB37E3C4
:1026000046E055EBC701B6010E94B73B87FD1DC0F0
:102610002BED3FE049EC50E4C701B6010E949F3822
:1026200012C02DEB37E346E055E3C701B6010E9427
:102630009539181654F02BED3FE049EC50E4C701F2
:10264000B6010E94A0386B017C01809064029090DA
:102650006502A0906602B09067022BA13CA14DA13B
:102660005EA1CA01B9010E94A038A50194010E948F
:102670009F389B01AC01C501B4010E94F73B0E9449
:10268000963C4B015C0120E030E040E05FE3C70195
:10269000B6010E94F73B2BA13CA14DA15EA10E9477
:1026A000F73B9F77A50194010E949F390E94843ACD
:1026B0000E94183A7EA76DA7DB01AB2B09F4D6CE9A
:1026C0001D854B01A12CB12C13FF12C0C501B40113
:1026D0000E94473A9B01AC0169817A818B819C8180
:1026E0000E94F73B69837A838B839C83177F1D87C6
:1026F000C501B4010E94473A4B015C019B01AC014A
:10270000C701B6010E949F396FA378A789A79AA72E
:10271000EFADB4E0EB9FC00111248C0108561D4FB2
:10272000FC01E251FD4FD8012D913D914D915C91FD
:1027300060817181828193810E949F38A5019401FB
:102740000E949F392B966CAF7DAF8EAF9FAF2B97BA
:102750002FA138A549A55AA5CA01B9010E94F73B86
:102760009B01AC0160E070E080E090E40E949F3843
:102770006B017C012BEA3AEA4AE25EE36FA178A59D
:1027800089A59AA50E94F73B4B015C0120E030E04F
:1027900040E850E4C701B6010E94A0389B01AC019B
:1027A000C501B4010E94F73B23966CAF7DAF8EAF9D
:1027B0009FAF239720E030E040E05FE3C701B60120
:1027C0000E94F73B27966CAF7DAF8EAF9FAF2797E8
:1027D0001BA222242394312CEDA5FEA52E163F0624
:1027E00009F444CEBBA1BC3008F048C027962CADFC
:1027F0003DAD4EAD5FAD27976F8D78A189A19AA1B0
:102800000E94F73B6B017C0123962CAD3DAD4EAD94
:102810005FAD2397C301B2010E94F73BA701960168
:102820000E94A0387B016C0127962CAD3DAD4EADCA
:102830005FAD2797C301B2010E94F73B4B015C01DA
:1028400023962CAD3DAD4EAD5FAD23976F8D78A136
:1028500089A19AA10E94F73B9B01AC01C501B4017B
:102860000E949F382B013C01EBA1EF5FEBA34701D6
:1028700056018F8E98A2A9A2BAA265C0B10180E0CC
:1028800090E00E94473A2FA138A549A55AA50E9479
:10289000F73B6B017C010E949A396F8F78A389A363
:1028A0009AA3C701B6010E94883C4B015C01A9A90B
:1028B000BAA9CD90DD90ED90FC90F7FAF094F7F87E
:1028C000F094A9ADBAAD8D919D910D90BC91A02DC4
:1028D0008BA39CA3ADA3BEA32F8D38A149A15AA160
:1028E000C701B6010E94F73B2B013C01A5019401F1
:1028F0006BA17CA18DA19EA10E94F73B9B01AC0125
:10290000C301B2010E94A0382B013C01A501940132
:10291000C701B6010E94F73B6B017C012F8D38A1E6
:1029200049A15AA16BA17CA18DA19EA10E94F73B58
:102930009B01AC01C701B6010E949F386F8F78A33D
:1029400089A39AA31BA2A30192016BA97CA98DA9BB
:102950009EA90E94A038EBA5FCA5608371838283A9
:1029600093832F8D38A149A15AA16BAD7CAD8DAD5C
:102970009EAD0E94A038AFA9B8AD6D937D938D93A5
:102980009C9313972B962CAD3DAD4EAD5FAD2B9721
:10299000F80160817181828193810E94A038D80101
:1029A0006D937D938D939C931397BE016F5F7F4FC3
:1029B00088E992E00E94663480911B0281116CC00C
:1029C000BFEF2B1A3B0A08CF8D8584608D878091DD
:1029D0001A02823009F460C00E94453380911B02C4
:1029E000811163C0FFA1F071FF2E10921F022FA171
:1029F00023FB882780F90E941418809106018078B3
:102A000090910002891749F084E00E941D170E94EE
:102A1000333280E00E94141848C0B8018EEE92E074
:102A20000E94663481E08093190282E00E942D1793
:102A30000E94333280911B02811137C080911A02AB
:102A40008111F6CF80911902813081F4FF2051F07D
:102A50008CE0E1E0F2E0ADE0B2E001900D928A9509
:102A6000E1F707C085E00E941D1703C081E0809355
:102A70001F021092190280E00E9414180E94333243
:102A80000E945C350E9408260E94F81B0E94331B9E
:102A900080911F02811188C08CE0EEEEF2E0A8E97F
:102AA000B2E001900D928A95E1F78091C80280937F
:102AB0008702882309F47FC00E94453380918702F2
:102AC00090911A02833041F49230D1F188E00E9453
:102AD0002D170E94333234C081E08093800210921F
:102AE0008402109283021092810210928602109248
:102AF00089021092880284E6809321028093220248
:102B000080932302923091F064EA72E080E00E94A8
:102B10003B298823E1F10E94B91740E050E0BA0157
:102B200080E00E94063280E00E94363181E094E02D
:102B30000E94841988E993E00E9484190E942E1B48
:102B4000109287022FC081E036C082E034C088E155
:102B500032C086E230C089E12EC084E02CC08BE117
:102B60002AC085E228C084E126C08EE124C08FE11E
:102B700022C086E120C080E21EC082E21CC083E247
:102B80001AC084E218C080E116C08FE014C087E04C
:102B900012C08CE0EEEEF2E0A8E9B2E001900D92F6
:102BA0008A95E1F780E007C00E94B7337ECF1E8E82
:102BB0001FA20C945808C25BDF4F0FB6F894DEBF1B
:102BC0000FBECDBFDF91CF911F910F91FF90EF907E
:102BD000DF90CF90BF90AF909F908F907F906F903D
:102BE0005F904F903F902F9008956F927F928F92B9
:102BF0009F92AF92BF92CF92DF92EF92FF920F938C
:102C00001F93CF93DF93EB018C015B018CE0A80E47
:102C1000B11C89E9682E96E7792E26E9822E3EE7D7
:102C2000932EC990D990E990F99020E030E0A90165
:102C3000C701B6010E9495398823B9F0A701960112
:102C4000F80160817181828193810E949F396B01BB
:102C50007C01E894F7F8A7019601B301C4010E9432
:102C6000953987FD02C0360147010C5F1F4FCA1519
:102C7000DB05B9F6B301C401DF91CF911F910F912C
:102C8000FF90EF90DF90CF90BF90AF909F908F908C
:102C90007F906F9008954F925F926F927F92AF9264
:102CA000BF92CF92DF92EF92FF920F931F93CF9339
:102CB000DF93EC018C015C018CE0A80EB11CC12CEF
:102CC000D12C7601F80141905190619071908F0163
:102CD00020E030E0A901C301B2010E9495398823A8
:102CE00071F0A3019201C301B2010E94F73B9B0165
:102CF000AC01C701B6010E94A0386B017C010A1526
:102D00001B0501F7C701B6010E94963C2B013C014F
:102D10009B01AC0160E070E080E89FE30E949F3976
:102D20006B017C019B01AC01688179818A819B8167
:102D30000E94F73B688379838A839B83A70196016E
:102D40006C817D818E819F810E94F73B6C837D83A6
:102D50008E839F83A7019601688579858A859B85E7
:102D60000E94F73B688779878A879B87C301B201F6
:102D7000DF91CF911F910F91FF90EF90DF90CF9057
:102D8000BF90AF907F906F905F904F900895CF93DA
:102D9000DF93CFE0DEE08991882319F00E9414319F
:102DA000FACFDF91CF910895CF93DF9321E031E007
:102DB000482F429FC001439F900D1124EC01DD5F1D
:102DC00040E051E0BE018FE09EE00E94F528892B93
:102DD00069F410920F0E0E94453340E051E06FE01D
:102DE0007EE0CE010E945F2780E001C081E0DF919C
:102DF000CF9108951F920F920FB60F9211248F93C7
:102E00008091B50A8F5F8093B50A8F910F900FBEA6
:102E10000F901F9018952FB7F8949091B40A892BB2
:102E20008093B40A2FBF08952FB7F8949091B30AF6
:102E3000892B8093B30A2FBF08959FB7F89480938E
:102E4000B20A9FBF08952FB7F8949091B10A809568
:102E500089238093B10A2FBF08952FB7F8949091DA
:102E6000B10A892B8093B10A2FBF0895AF92BF9208
:102E7000CF92DF92EF92FF920F931F93CF93DF9346
:102E8000EC010FE412E05C018CE0A80EB11CC990CB
:102E9000D990E990F99020E030E0A901C701B6018E
:102EA0000E94B73B18168CF0F801219131914191A5
:102EB00051918F01C701B6010E94953987FD05C068
:102EC000CA15DB0521F780E001C081E0DF91CF91D9
:102ED0001F910F91FF90EF90DF90CF90BF90AF9038
:102EE0000895AF92BF92CF92DF92EF92FF920F932D
:102EF0001F93CF93DF9300D01F92CDB7DEB75B0156
:102F00002BE2E22E22E0F22E8C016B018CE0C80E47
:102F1000D11CF50161917191819191915F01F7014E
:102F200021913191419151917F0129833A834B83C2
:102F30005C830E94493A29813A814B815C810E94DD
:102F40009F39F80161937193819391938F01AC1430
:102F5000BD04F9F60F900F900F900F90DF91CF9175
:102F60001F910F91FF90EF90DF90CF90BF90AF90A7
:102F700008950E944533109226020895209106017B
:102F8000822F8F7069F023FB882780F991E08927D1
:102F900020FF826021FF846022FD03C088600895C5
:102FA00080E008951F920F920FB60F9211240BB676
:102FB0000F922F933F934F935F936F937F938F93D2
:102FC0009F93AF93BF93EF93FF930E94BE17882305
:102FD000C1F081FF03C00E94BD3313C083FF04C052
:102FE0008091B10A82600BC082FF04C08091B10A57
:102FF000886005C080FF05C08091B10A806280931F
:10300000B10AFF91EF91BF91AF919F918F917F9105
:103010006F915F914F913F912F910F900BBE0F9049
:103020000FBE0F901F9018951092000290917002A1
:1030300097FD03C090E890930002882329F08091C7
:10304000000280588093000208958F929F92AF9261
:10305000BF92CF92DF92EF92FF920F931F93CF9385
:10306000DF93CDB7DEB72D970FB6F894DEBF0FBE56
:10307000CDBF6B017C01042F20E030E0A9010E944C
:10308000953987FF07C08DE20E941431F7FAF0945A
:10309000F7F8F094102F123060F020E030E048ECA8
:1030A00052E4C701B6010E94F73B6B017C0112504C
:1030B000F2CF00FF0AC020E030E040E251E4C70157
:1030C000B6010E94F73B6B017C0120E030E040E05C
:1030D0005FE3C701B6010E94A0380E94113A10E0D8
:1030E0003AE0832E912CA12CB12C6115710581053C
:1030F000910591F0EE24E394F12CEC0EFD1EE10E0F
:10310000F11CA50194010E94203D605DF7016083E0
:10311000B901CA011F5FE9CF80E3101748F4E1E06D
:10312000F0E0EC0FFD1FE10FF11D80831F5FF5CF75
:10313000101314C011E0100F80E3FE01E00FF11D29
:1031400081830CC0101303C08EE20E941431FE0173
:10315000E10FF11D80810E94143111501111F2CF45
:103160002D960FB6F894DEBF0FBECDBFDF91CF9185
:103170001F910F91FF90EF90DF90CF90BF90AF9095
:103180009F908F9008952091700220FF08C02BE837
:1031900032E441E25DE30E94F73B41E001C040E0E0
:1031A0000C9425182091700220FF08C02BE832E40F
:1031B00041E25DE30E94F73B44E001C043E00C9430
:1031C0002518CF93DF93EC01688179818A819B81F7
:1031D0000E94D2188CE20E9414316C817D818E8114
:1031E0009F810E94D2188CE20E94143168857985F3
:1031F0008A859B85DF91CF910C94D2188F929F92F4
:10320000AF92BF92EF92FF921F93CF93DF93CDB710
:10321000DEB72A970FB6F894DEBF0FBECDBF61159B
:1032200071058105910591F480E32A960FB6F89413
:10323000DEBF0FBECDBFDF91CF911F91FF90EF900A
:10324000BF90AF909F908F900C94143130E04AE083
:10325000842E912CA12CB12C11E0130FEE24E394B9
:10326000F12CEC0EFD1EE30EF11CA50194010E9451
:10327000203DF7016083B901CA01312F6115710545
:103280008105910549F7112349F0FE01E10FF11D78
:103290008081805D0E9414311150F5CF2A960FB6BF
:1032A000F894DEBF0FBECDBFDF91CF911F91FF908D
:1032B000EF90BF90AF909F908F900895CF93DF9342
:1032C000843630F06AE00E94003DC0E3C90F03C0BD
:1032D000C0E08A3030F06AE00E94003DD0E3D90FB0
:1032E00001C0D0E0805D0E941431DD2319F08D2FE4
:1032F0000E941431CC2329F08C2FDF91CF910C94B4
:103300001431DF91CF910895CF93DF93FC01849125
:10331000EF012196882321F00E941431FE01F7CF9E
:10332000DF91CF91089587E094E00C948419CF93B6
:10333000C82F80E194E00E9484198C2F0E945E19AE
:10334000CF910C949319811104C087E194E00C94FF
:1033500084190C949719CF93DF93C0E08C2F0E94AF
:10336000D41681110EC010920F0E8EE30E941431FC
:103370000E94C7168AE30E94143187E00E949719C1
:1033800012C080910F0E882371F00E941E08D82F62
:103390008EE30E9414310E94C7168AE30E94143102
:1033A0008D2F0E94A319C13011F0C1E0D7CFDF915A
:1033B000CF910895CF92DF92EF92FF921F93CF9318
:1033C000DF931F92CDB7DEB7182F6A017B0184E22D
:1033D00029830E941431812F0E945E198DE30E947F
:1033E00014312981422FC701B6010E9425180F9080
:1033F000DF91CF911F91FF90EF90DF90CF900C94D1
:1034000093191F93CF93DF931F92CDB7DEB7182F79
:1034100084E269830E941431812F0E945E198DE33A
:103420000E9414316981862F0E945E190F90DF91EE
:10343000CF911F910C949319EF92FF920F931F93CA
:10344000CF93DF9360915B0270E080E00E94011AED
:1034500060915E0270E081E00E94011A60915C025E
:1034600070E082E00E94011A60915D0270E083E0EA
:103470000E94011A6091700262FB662760F970E099
:1034800084E00E94011A6091700266FB662760F971
:1034900070E085E00E94011A80917002082E000CF5
:1034A000990B692F661F6627661F70E086E00E94F1
:1034B000011A60915F0270E08AE00E94011A409157
:1034C000600250916102609162027091630223E098
:1034D0008BE00E94DA19409164025091650260917C
:1034E00066027091670223E08CE00E94DA19609115
:1034F0007002617070E08DE00E94011A60917002AC
:1035000065FB662760F970E084E10E94011A609112
:10351000700263FB662760F970E085E10E94011A82
:10352000609170026295617070E086E10E94011AFC
:103530006091710270E087E10E94011A409172026D
:1035400050917302609174027091750223E088E1DA
:103550000E94DA19409176025091770260917802C8
:103560007091790223E089E10E94DA1960917A0270
:1035700070917B028AE10E94011A40917C02509175
:103580007D0260917E0270917F0223E08BE10E94B8
:10359000DA19409168025091690260916A02709153
:1035A0006B0220E08EE10E94DA1940916C0250918A
:1035B0006D0260916E0270916F0220E08FE10E94B7
:1035C000DA19609170026695617070E080E20E9485
:1035D000011AD4E6F12C0BE212E083E0E82EED0EA6
:1035E000CD2F82E0F81691F0E3E0FE16E9F0F1E06D
:1035F000FF1631F0F80140815181628173811AC058
:10360000F801448555856685778514C020E030E053
:1036100041E655E4F801608D718D828D938D0E9495
:103620009F39AB01BC0106C0F80144A155A166A1B8
:1036300077A1705823E08C2F0E94DA190C5F1F4F7E
:10364000CF5FCE11CECFD65FF394DC3821F6DF9179
:10365000CF911F910F91FF90EF9008958DE50E94FB
:1036600014310C949319CF93DF93CDB7DEB72C9719
:103670000FB6F894DEBF0FBECDBF8AE094E00E9483
:1036800084196DE072E0CE0101960E947117CE019F
:1036900001960E94E1188AE30E94143180911F0272
:1036A0000E945E190E942E1B2C960FB6F894DEBF66
:1036B0000FBECDBFDF91CF9108951F920F920FB62D
:1036C0000F9211240BB60F922F933F934F935F935A
:1036D0006F937F938F939F93AF93BF93EF93FF93DA
:1036E00080911A02813049F08091B20A811105C09F
:1036F0000E94BD3381E00E941D17FF91EF91BF91A1
:10370000AF919F918F917F916F915F914F913F9179
:103710002F910F900BBE0F900FBE0F901F9018951A
:1037200093B190778091700286FD02C080E7982760
:10373000992349F094FB882780F995FD8260907465
:1037400019F08460089580E00895EBE6F0E0808150
:103750008F788083E8E6F0E080818E7F8083089513
:1037600084B18F7884B985B1806785B98091700202
:1037700083FF0BC080916B00806780936B0080910A
:10378000680081608093680008950C94A51B0F93D6
:103790001F93CF93C42F20E030E040EA51E40E9411
:1037A000F73B0E947E390E94183A8B0101151105E2
:1037B000D9F080911B02811117C0C11103C00E9472
:1037C000333206C00E94782180911C0281FD0CC01A
:1037D0002FEF80E792E0215080409040E1F700C059
:1037E000000001501109E2CFCF911F910F91089570
:1037F000E5E9FAE0A1E0B2E04D915D916D917C9137
:103800001397408351836283738314964D915D9126
:103810006D917C91179744835583668377831896BF
:103820008D919D910D90BC91A02D80879187A2874D
:10383000B3870895BF92CF92DF92EF92FF920F93DA
:103840001F93CF93DF937C01FC0106A517A5D0A998
:10385000C1A9818980FF18C06091220270E080E0D8
:1038600090E00E94493A2AE037ED43E25CE30E948F
:10387000F73B9B01AC01B8018D2F9C2F0E94F73BB9
:103880008B01D82FC92F2DC082FD17C06091210256
:1038900070E080E090E00E94493A2AE037ED43E290
:1038A0005CE30E94F73B9B01AC01B8018D2F9C2F7C
:1038B0000E94F73B8B01D82FC92FF701B2A4C3A4F4
:1038C000D4A4F5A42B2D3C2D4D2D5F2DB8018D2FAB
:1038D0009C2F0E94B73B181624F40B2D1C2DDD2DB8
:1038E000CF2D20E030E040E85FE3B8018D2F9C2F22
:1038F0000E94B73B181624F000E010E0D0E8CFE3B8
:10390000B8018D2F9C2FDF91CF911F910F91FF90C8
:10391000EF90DF90CF90BF9008952F923F924F92FB
:103920005F926F927F928F929F92AF92BF92CF924F
:10393000DF92EF92FF920F931F93CF93DF93CDB758
:10394000DEB7CA54D1090FB6F894DEBF0FBECDBFA3
:103950004B01A090940A2A2C312C26E3229DA00131
:10396000239D500D1124BA0164507D4F7EAB6DAB89
:10397000FB0111922A95E9F7F4012485FB01218BC3
:10398000F4014481558166817781EDA9FEA942AB9E
:1039900053AB64AB75ABF40140855185628573858B
:1039A000EDA9FEA9428B538B648B758B21FF42C01E
:1039B0002CE0E1E0F2E0DE01599601900D922A95AB
:1039C000E1F78BAB9CAB2BE232E021963FAF2EAF01
:1039D0002197BE016B5D7F4F7EAF6DAFCE014996E3
:1039E0009AAF89AFFE013D96FCAFEBAF66E3A69EB2
:1039F0009001112427963FAF2EAF2797F8AFEFAB7A
:103A000000E010E0B12C86E3829D9001839D300D93
:103A10001124C90184509D4FFC013C962396FFAFB1
:103A2000EEAF23979C01205F3F4F25963FAF2EAF0F
:103A3000259743C02CE0E5E9FAE0BDCF2796EEAD2F
:103A4000FFAD2797E00FF11FE450FD4FC082D182F8
:103A5000E282F3822396EEADFFAD23972081318180
:103A600042815381C216D306E406F50610F46901BB
:103A70007A012396EEADFFAD2397C082D182E28218
:103A8000F3820E94493AA30192010E949F39EFA953
:103A9000F8AD6193719381939193F8AFEFAB20E010
:103AA00030E0A9010E94953987FD41C0B3940C5FB5
:103AB0001F4F0C30110509F44CC0EBA9FCA9619112
:103AC000719181919191FCABEBAB2196EEADFFAD85
:103AD000219741905190619071902196FFAFEEAF88
:103AE0002197A30192010E94F73B0E94C43BEDADD8
:103AF000FEAD6193719381939193FEAFEDAFE9AD0C
:103B0000FAADC190D190E190F190FAAFE9AF6C19A4
:103B10007D098E099F096B017C0197FF8FCFCC2413
:103B2000DD247601C61AD70AE80AF90A87CFBB2036
:103B300029F0F1E0BF1621F090E203C090E801C047
:103B400090E42596EEADFFAD25978081892B80838B
:103B5000ADCFCD28CE28CF2809F4A3C1CE010D9634
:103B60000E944B169B01AC0186E3829D8001839DE0
:103B7000100D112404501D4FF80122A333A344A3B8
:103B800055A3BE01635F7F4F83E492E028962FAF79
:103B9000289729963FAF29972A964FAF2A972B96B9
:103BA0005FAF2B970E94F515F801668F778F80A382
:103BB00091A3BE01635F7F4F87E392E00E94F515FA
:103BC000F80162A773A784A795A7F18828962FAD5F
:103BD000289729963FAD29972A964FAD2A972B967D
:103BE0005FAD2B97F0FC09C0F40160817181828187
:103BF0009381F3FC0E94F73BF80166A777A780AB9F
:103C000091AB8091FB02A81611F0F1FE0DC086E386
:103C1000829DF001839DF00D1124E450FD4F168A22
:103C2000178A108E118E54C021EA3AE03CAB2BABC0
:103C30008E010F5F1F4FBE01675E7F4F7AAB69AB8E
:103C4000C12CD12C76010FAB19AFEBA9FCA9819047
:103C50009190A190B190FCABEBABEBADFCAD419082
:103C6000519061907190FCAFEBAFA3019201C5013F
:103C7000B4010E94F73B9B01AC01C701B6010E9451
:103C80009F386B017C01A5019401C301B2010E9420
:103C90009F38F80161937193819391938F012BADBC
:103CA0003CAD69A97AA92617370779F62FEE3FEFC1
:103CB0004FE75FE3C701B6010E94B73B18166CF4EB
:103CC00086E3829DF001839DF00D1124E450FD4FA9
:103CD00016A217A210A611A671C02FEE3FEF4FE754
:103CE0005FEBC701B6010E94953987FF11C086E3DB
:103CF000829DF001839DF00D1124E450FD4F89E970
:103D000096E7A6E9BEE786A397A3A0A7B1A756C0EA
:103D10008FA999AD0E944B166FA979AD83E492E00B
:103D20000E94F5154B015C01A701960160E070E06F
:103D300080E89FE30E949F3820E030E040E05FE3AE
:103D40000E94F73B0E94963C6B017C01209160022F
:103D5000309161024091620250916302C501B40149
:103D60000E94F73BA70196010E94F73B4B015C01C3
:103D7000A701960160E070E080E89FE30E949F3811
:103D80009B01AC01C501B4010E949F396B017C010C
:103D900020E030E0A9010E94953987FF03C0C12CC3
:103DA000D12C760186E3829DF001839DF00D1124D4
:103DB000E450FD4FC6A2D7A2E0A6F1A686E3829DFD
:103DC0008001839D100D112404501D4FF80181893D
:103DD00081FD69C08DA99EA90E941A1C6B017C01FE
:103DE0008090AD0A9090AE0AA090AF0AB090B00A51
:103DF000A50194010E94B73B18162CF4A50194016B
:103E0000C501B40104C0A7019601C701B6010E9413
:103E1000F73BF801628F738F848F958F86E3829DC5
:103E20008001839D100D112404501D4FF80186A0C0
:103E300097A0A0A4B1A4A5019401628D738D848D77
:103E4000958D0E94B73B18162CF4F801828E938E44
:103E5000A48EB58EC092AD0AD092AE0AE092AF0A9F
:103E6000F092B00A8CE0FE013D96A1EABAE0019022
:103E70000D928A95E1F78CE0FE01B596A5E9BAE0CE
:103E800001900D928A95E1F78091FA028093940A4D
:103E90008F5F843209F480E08093FA020E94192631
:103EA00002C080E001C081E0C65BDF4F0FB6F8942E
:103EB000DEBF0FBECDBFDF91CF911F910F91FF905D
:103EC000EF90DF90CF90BF90AF909F908F907F90BA
:103ED0006F905F904F903F902F9008952F923F9258
:103EE0004F925F926F927F928F929F92AF92BF920A
:103EF000CF92DF92EF92FF920F931F93CF93DF93B6
:103F0000CDB7DEB7A5970FB6F894DEBF0FBECDBF15
:103F100090911B029111C3C18BA39E012F5F3F4F54
:103F20003E8F2D8F8DE0D9011D928A95E9F786E0AD
:103F30008D872FE4A22E22E0B22EFE017A964F0149
:103F400000E010E0C12CD12C76013BA1232F30E002
:103F50003AA329A3902F0115110521F0013021F07A
:103F600080E103C084E001C088E0D4018D934D015D
:103F7000E9A1FAA102C0F595E7959A95E2F7E0FF6D
:103F800017C020E030E040EC5FEBD5016D917D91F2
:103F90008D919C910E94F73B1B012C019B01AC0170
:103FA000C701B6010E94B73B181614F061017201F7
:103FB0000F5F1F4FB4E0AB0EB11C0330110551F67B
:103FC00020907602309077024090780250907902EB
:103FD00094E0A92EBB24B39461E072E0CE010E966A
:103FE0000E94711780917102E82FF0E0FDA3ECA30D
:103FF000FE013E9621E032E038A32F8F890120E0B8
:1040000030E060E090E03601470197FA909497F82D
:10401000909449A15AA1022E02C0559547950A9441
:10402000E2F740FF27C06F5FD8011D921D921D92DD
:104030001C9213974CA15DA1022E02C05595479585
:104040000A94E2F740FF03C0BB2019F007C0BB2071
:1040500029F0C082D182E282F38204C06082718240
:1040600082829382AAE1B0E0AC0FBD1FA20FB31F02
:104070008C91982B2F5F3F4F34960C5F1F4F23304E
:10408000310539F6192F70E080E090E00E94473A40
:104090000E94963C9B01AC0110932002C201B10129
:1040A0000E94F73B69837A838B839C83BE016F5F99
:1040B0007F4FCE010E960E948D1CB4E0B0931E027D
:1040C0000E945C290E94D637BB20E9F00E94901B19
:1040D000FE017A9620E030E090E06191462F412386
:1040E00059F0AC01022E02C0559547950A94E2F7AB
:1040F00040FF02C0609516232F5F3F4F23303105EC
:1041000061F7109320020E945C298091B10A8473A8
:1041100039F11091B10A14FF03C086E00E941D1707
:1041200015FF03C087E00E941D17B11007C00E9451
:10413000901BEBA18E2339F088E003C012FF03C06F
:1041400089E00E941D178091B20A882329F00E94FD
:10415000BD330E943332A3C084E00E94231704C001
:10416000812F8C7109F0B0CF0E945C3500917A02EA
:1041700010917B020115110549F08FE99FE001972D
:10418000F1F700C0000001501109F4CF91E0B92609
:10419000C9F020E030E040EA50E460917C02709188
:1041A0007D0280917E0290917F020E94F73B6B011D
:1041B0007C01209072023090730240907402509003
:1041C000750210C0C0907C02D0907D02E0907E020B
:1041D000F0907F0220907602309077024090780233
:1041E00050907902AA94A110F7CEC0907102D12C00
:1041F00080907C0290907D02A0907E02B0907F0221
:104200002401350177FA709477F870948BE2E82EE8
:1042100082E0F82E89A19AA1002E02C0959587957B
:104220000A94E2F780FF2AC0C601002E02C09595CD
:1042300087950A94E2F7D70180FF10C094962D91DC
:104240003D914D915C919797C501B4010E94A038B2
:10425000F701208131814281538106C02D913D912A
:104260004D915C91C301B2010E94F73B0E94C43B97
:10427000EF8DF8A160837183828393830F5F1F4F5B
:104280002F8D38A12C5F3F4F38A32F8F34E0E30EE2
:10429000F11C0330110509F0BDCF10921E02A59646
:1042A0000FB6F894DEBF0FBECDBFDF91CF911F9147
:1042B0000F91FF90EF90DF90CF90BF90AF909F90C5
:1042C0008F907F906F905F904F903F902F900895C8
:1042D0008091FB029091940A981739F026E3829F0F
:1042E000C001112484509D4F089580E090E008950E
:1042F0003F924F925F926F927F928F929F92AF9276
:10430000BF92CF92DF92EF92FF920F931F93CF93C2
:10431000DF93CDB7DEB7A5970FB6F894DEBF0FBE1B
:10432000CDBF1091B20A112391F181E080931A025E
:104330008CE194E00E948419812F0E945E190E94F2
:10434000931985EF91E0019739F0EFE9FFE031979C
:10435000F1F700C00000F7CF1150123030F08FB7E6
:10436000F8941092B20A8FBF12C081E094E00E94CC
:1043700084198FEE93E00E9484190E942E1B80E125
:104380000E9423178091B10A84FFFCCFE8CF1091DF
:10439000B10A112309F4F5C214FF04C081E080932F
:1043A0001B02FCC310FFF7C18CE0E1E0F2E0DE018C
:1043B000599601900D928A95E1F7BE01675E7F4F95
:1043C000CE010D960E9471178CE30E9414318091EA
:1043D0001A028830E1F058F4813099F1A8F0823067
:1043E00099F1843009F043C08CE694E03EC08032FD
:1043F00029F118F4803171F03AC0803441F18038ED
:10440000B1F584E594E031C08FE794E02EC08BE7EE
:1044100094E02BC080911C0287FD10C085E794E0DA
:104420000E94841980911C0280FF06C080E31AC09C
:1044300082FF17C085FFFACF81E314C081E794E0C3
:1044400014C086E694E011C080E694E00EC08AE5D0
:1044500094E00E94841980911C0283FFE9CF83E3DA
:1044600001C082E30E94143102C00E94841980912D
:104470005F02F82FF170BF2E80FD15C04090BC0286
:104480005090BD026090BE027090BF0244EA842E3C
:1044900042E0942E9E012F5F3F4F7901CE010D9691
:1044A0006C0100E02CC080912602882339F38DE452
:1044B00094E03FC0A30192010E94A038F7016083FD
:1044C000718382839383B110F2CFF7012081318110
:1044D00042815381F60160817181828193810E94C2
:1044E0009F38F60160837183828393830F5FF4E0CA
:1044F000EF0EF11C24E0C20ED11C0330B1F0F40128
:1045000061917191819191914F0120853185428511
:1045100053850E94A038F70160837183828393835F
:10452000023041F2BB2089F2E1CFB110C0CF86E466
:1045300094E00E948419CE010D960E94E1188091AA
:104540005F0281FF1BC081E494E00E948419909176
:10455000940A8091FB02981710F08D5D01C0815084
:10456000891B0E945E198CE20E9414318091B70A67
:1045700081509091B60A891B0E945E190E946821A1
:104580000097F9F0FC01C288D388E488F588C1144B
:10459000D104E104F104A9F08CE394E00E948419B1
:1045A000F7FE0BC08DE20E94143166277727CB01FE
:1045B0006C197D098E099F0902C0C701B6010E94CE
:1045C000FE1887E394E00E94841980911A028C7788
:1045D00049F06091C40B7091C50B8091C60B90910E
:1045E000C70B03C060E070E0CB010E94C3188CE2EF
:1045F0000E94143160912702709128028091290253
:1046000090912A0240E00E9425180E94901BF82EEB
:104610000E94BE17082F80910601982F90788091F4
:104620000002E92EE8268F2D802B8E2959F182E396
:1046300094E00E948419EE2019F080E50E94143164
:10464000FF2079F0F0FE03C088E50E941431F1FEEE
:1046500003C089E50E941431F2FE03C08AE50E947E
:104660001431002379F001FF03C082E50E94143168
:1046700002FF03C088E40E94143103FF03C083E5F6
:104680000E94143180912602882321F0815080936A
:10469000260218C080911A028C7711F08DE101C0BA
:1046A00089E08093260280912502811103C081E078
:1046B000809325028CE294E00E948419CE01019639
:1046C0000E94E11880912502882321F08150809377
:1046D000250259C080911A028C7711F083E101C044
:1046E00089E08093250287E294E00E9484198091FA
:1046F00021020E945E198CE20E94143180912202F4
:104700000E945E198CE20E941431809123020E9463
:104710005E1980910201282F287083FF0BC08091C1
:10472000A000282F207285FF05C0739902C021E0E8
:1047300001C022E00091020105FB002700F98091F1
:10474000020186FF02C0026005C0211103C00023E0
:10475000D1F001E083E294E02DA30E9484192DA101
:10476000222339F0213011F483E501C083E40E9453
:10477000143100FF03C086E40E941431027019F066
:104780008DE40E9414318EE30E9414310E9493192B
:1047900081E00E942317812F887E09F469C08091EF
:1047A0001A02982F937009F052C08872A1F080917C
:1047B0001C02807C81F40E94D23482E080931E022D
:1047C00080911A02803239F417FD05C080911C02D5
:1047D000806880931C0280911A02811103C091E0CD
:1047E00090931C0216FF07C085FD05C090911C0226
:1047F000906490931C0213FF05C0807E19F480E141
:1048000080931A0215FF23C081E094E00E9484196E
:104810008DEA93E00E9484190E942E1B80911C0255
:1048200087FD10C090911A02903439F483FF07C0BD
:10483000837E826080931C0202C0903819F080E46D
:1048400080931A0280911C02806280931C0217FFE1
:104850000CC080911A02813029F480911C0285607D
:1048600080931C0280E880931A0288EE0E9423172E
:1048700011FF44C0812F8876F1F580911A028034AF
:1048800071F480911C0285FD0AC084FF03C0109260
:104890001A0205C082FF03C0886080931C028091C9
:1048A0001A02882381F084FF26C090911C0290FF99
:1048B00022C0803141F480912402882321F0886055
:1048C0008093240218C010921E020E946821892B36
:1048D00071F080911C0286FD0AC010921C0288E0D3
:1048E00080931A020E945C290E94D63704C010925D
:1048F0001C0210921A0282E00E94231712FF41C08C
:1049000080911A02807D90911C028823D9F08091B9
:104910001D02811117C097FD15C00E94D2348091ED
:10492000FB028093E00B0E94192680911E0281FFFA
:1049300005C090911C02916090931C02897F809326
:104940001E021CC097FF0AC010921E020E94082679
:104950000E945C350E94B7330E94F81B80911C02B4
:1049600085FF08C08F77816080931C0280E480936C
:104970001A0204C010921C0210921A0284E00E94D3
:1049800023179091B30A992309F4ABC08FB7F89419
:104990001092B30A8FBF4091210290FF02C084E6BB
:1049A00001C0842F91FD865F92FD8A5093FD8F5F39
:1049B00094FD8150893C08F088EC8A3008F48AE044
:1049C0003091220295FF02C024E601C0232F96FDFC
:1049D00022E397FD29E1841303C0231709F481C062
:1049E0008093210220932202109225021091FB0253
:1049F0003090940A89E9D82E96E7E92E26E9F22E1E
:104A00000EE736E3432E131509F457C0812E912C7F
:104A1000489CC001499C900D11249C0124503D4F9D
:104A20005901C9010E941A1C562E672E782EC92ED4
:104A30002D2D3E2D4F2D502F0E94B73B18164CF4B4
:104A40002D2D3E2D4F2D502F6D2D7E2D8F2D902FE6
:104A500008C0252D362D472D5C2D652D762D872DF3
:104A60009C2D0E94F73BF501628F738F848F958F89
:104A7000489CC001499C900D11249C0124503D4F3D
:104A80007901F90186A097A0A0A4B1A4A501940181
:104A9000628D738D848D958D0E94B73B18162CF412
:104AA000F701828E938EA48EB58E1F5F143209F4A7
:104AB00010E0D52C73010C2DA6CF8D2D9E2DAF2D82
:104AC000B02F8093AD0A9093AE0AA093AF0AB09333
:104AD000B00A0E94D2348091FB028093E00B0E94C6
:104AE00019269091B40A992309F452C08FB7F8940B
:104AF0001092B40A8FBF2091230290FF02C084E677
:104B000001C0822F91FD865F92FD8A5093FD8F5FD9
:104B100094FD8150893C08F088EC8A3008F48AE0E2
:104B2000821749F020911E02286020931E02809374
:104B300023021092250280911A0295FF0DC0803148
:104B400059F420912402211102C022E003C020FF69
:104B500003C0246020932402292F207CC9F08823DD
:104B600011F08871A9F01091880297FF05C017FF16
:104B700002C01F7701C0106896FF05C016FF02C073
:104B80001F7B01C01064812F0E9436311093880270
:104B900080911A028C7F11F00E945C29A5960FB6B5
:104BA000F894DEBF0FBECDBFDF91CF911F910F9163
:104BB000FF90EF90DF90CF90BF90AF909F908F903D
:104BC0007F906F905F904F903F900895F894F9997F
:104BD000FECF92BD81BD81E08FBB80B58627482F77
:104BE000082E000C550B262F30E024233523232BD1
:104BF00039F06F3F19F060BD84E006C084E104C065
:104C0000882321F060BD84E28FBBF99A78940895DF
:104C10008CE1E5E9FAE0DF011D928A95E9F710924F
:104C2000FB021092940A81E08093FA021092E00B4A
:104C300008952F923F924F925F926F927F928F9240
:104C40009F92AF92BF92CF92DF92EF92FF920F931B
:104C50001F93CF93DF93D091940AD11101C0D4E276
:104C6000D150C091E00BDC1709F416C1ED2EF12CE8
:104C700026E3D29F8001112404501D4FF801A28C1D
:104C8000B38CC48CD58C668D778D80A191A19B014E
:104C9000AC010E94A038F80122A133A144A155A182
:104CA0000E94F73B4B018C019B01AC01B501C60191
:104CB0000E94953987FD02C05401680186E38E9DEC
:104CC000F0018F9DF00D1124E450FD4FC501D60178
:104CD000868B978BA08FB18FD11101C0D4E2D150B8
:104CE000DC1307C08091FB02C81366C00E94D23457
:104CF00063C026E32E9DC0012F9D900D11249C01C1
:104D000024503D4F790196E3792EAD2EB12C7A9C3B
:104D1000C0017B9C900D1124FC01E450FD4F6F01FC
:104D2000D11101C0D4E2D1508091FB02D81302C04E
:104D30000E94D2347A9C80017B9C100D1124045077
:104D40001D4FF801828C938CA48CB58CA501940125
:104D500066897789808D918D0E949539882349F1E4
:104D6000F801668D778D80A191A19B01AC010E9415
:104D7000A038F80122A133A144A155A10E94F73B1C
:104D8000F70126893789408D518D0E94A0381B017B
:104D90002C01A50194010E949539F80187FF05C0F7
:104DA000268A378A408E518E04C0868A978AA08EC2
:104DB000B18E7601DC13A9CFF6E3CF9F80011124D9
:104DC00004501D4FCF5FC43209F4C0E02090940A14
:104DD000D091E00B86E3382EC21509F45BC0CC2ECF
:104DE000D12C3C9CC0013D9C900D11249C01245071
:104DF0003D4F7901F80146885788608C718CF90124
:104E000086889788A08CB18CA5019401C301B2015A
:104E10000E94953987FF24C0F801668D778D80A1A7
:104E200091A19B01AC010E94A038F80122A133A1FD
:104E300044A155A10E94F73B9B01AC01C301B20103
:104E40000E94A0382B013C01A50194010E949539D4
:104E500087FF06C0F701468A578A608E718EDC2F65
:104E60003C9CF0013D9CF00D1124E450FD4F228D3F
:104E7000338D448D558D66897789808D918D0E9403
:104E80009539811101C0DC2FCF5FC43209F4C0E035
:104E90008701A2CFD093E00BDF91CF911F910F91AB
:104EA000FF90EF90DF90CF90BF90AF909F908F904A
:104EB0007F906F905F904F903F902F9008958F92CA
:104EC0009F92AF92BF92CF92DF92EF92FF920F9399
:104ED0001F93CF937C014A016B01C40ED51E8B0139
:104EE000C0E05C01A61AB70AC8018A0D9B1D0C150B
:104EF0001D0599F0C11108C02C2FCC0F330B232FA7
:104F0000221F2227221F01C021E0F80161918F0199
:104F1000C22FC60F0E94E625E7CF6C2FC701880D70
:104F2000991DCF911F910F91FF90EF90DF90CF903F
:104F3000BF90AF909F908F900C94E6256AE080E040
:104F400090E00E94E62545E550E06BE272E081E0EA
:104F500090E00C945F27CF93DF9300D0CDB7DEB7FE
:104F60006A837B8389830E94453389812DE0829FF8
:104F7000C00111244CE050E06A817B819E5F0F905C
:104F80000F900F90DF91CF910C945F27EF92FF92DB
:104F90000F931F93CF93DF93CDB7DEB72C970FB648
:104FA000F894DEBF0FBECDBF182F80FFD5C08AE0BA
:104FB00080935B0289E180935E0210925C02109202
:104FC0005D0281E080935F028AE097EDA3E2BCE39B
:104FD0008093600290936102A0936202B093630297
:104FE0008FE692E1A3E0BBE38093640290936502B5
:104FF000A0936602B093670280E090E0AAE7B4E471
:105000008093680290936902A0936A02B0936B0246
:1050100010926C0210926D0210926E0210926F024A
:105020001092710280E090E0A8ECB1E480937202EB
:1050300090937302A0937402B093750280E090E0A5
:10504000AAEFB3E48093760290937702A09378025C
:10505000B09379022AEF30E030937B0220937A02FA
:1050600040E050E060E87FE340937C0250937D0293
:1050700060937E0270937F021092700240E050E0D5
:105080006AE773E440932B0250932C0260932D0245
:1050900070932E0240932F0250933002609331029E
:1050A000709332024093330250933402609335027E
:1050B000709336028093370290933802A09339029E
:1050C000B0933A0280933B0290933C02A0933D023E
:1050D000B0933E0280933F0290934002A09341021E
:1050E000B093420280E090EAACE0B7E480934302E0
:1050F00090934402A0934502B093460280934702E6
:1051000090934802A0934902B0934A0280934B02C5
:1051100090934C02A0934D02B0934E0280E090E039
:10512000A8E4B3EC80934F0290935002A0935102F5
:10513000B09352028093530290935402A09355026D
:10514000B09356028093570290935802A09359024D
:10515000B0935A020E949E2711FF10C0CE01019603
:105160007C018CE0F70111928A95E9F700E0B70124
:10517000802F0E94AB270F5F0830C9F712FF14C0C1
:1051800060E080E093E00E94E62560E081E093E04B
:105190000E94E62560E081E094E00E94E62560E060
:1051A00082E094E00E94E62513FF0AC060E08EEAE8
:1051B00093E00E94E62560E08FEA93E00E94E625F6
:1051C0002C960FB6F894DEBF0FBECDBFDF91CF9106
:1051D0001F910F91FF90EF900895F999FECF92BD26
:1051E00081BD81E08FBB80B508958F929F92AF9271
:1051F000BF92CF92DF92EF92FF920F931F93CF93C4
:105200004B017A016C01C40ED51E8C01C0E05B011C
:10521000A81AB90AC501800F911F0C151D0599F038
:105220000E94ED28C11108C02C2FCC0F330B232F67
:10523000221F2227221F01C021E0C22FC80FF80120
:1052400081938F01E7CFC4018E0D9F1D0E94ED2831
:1052500021E030E0C81711F020E030E0C901CF9123
:105260001F910F91FF90EF90DF90CF90BF90AF9084
:105270009F908F9008951F93CF93DF93182FEB018A
:105280008DE0189FB00111247E5F4CE050E0CE010C
:105290000E94F528892B59F48CE0FE0111928A9521
:1052A000E9F7BE01812F0E94AB2780E001C081E0B9
:1052B000DF91CF911F9108952F923F924F925F926D
:1052C0006F927F928F929F92AF92BF92CF92DF9216
:1052D000EF92FF920F931F93CF93DF93CDB7DEB77B
:1052E000EC970FB6F894DEBF0FBECDBF80911E02C3
:1052F00080FD43C79091B80A8091B90A981709F4C4
:105300003CC78091DE0B9091DF0B892B09F02DC3F8
:1053100010911E0212FF09C08091940A26E3289F73
:10532000C001112484509D4F02C00E9468219093B7
:10533000DF0B8093DE0B2090DE0B3090DF0B21140F
:10534000310409F41AC70091AE0B902F917000FF41
:1053500003C01092AE0BFEC08091AD0B8F5F893001
:1053600009F0982F9093AD0BE92EF12C32E13E9D80
:10537000F0013F9DF00D1124E55FF44FF093E20B37
:10538000E093E10BD10150968C915097808B4D9119
:105390005D916D917C91DB01CA0123E0880F991F1B
:1053A000AA1FBB1F2A95D1F780839183A283B38361
:1053B000D10114964D915D916D917C911797DB0110
:1053C000CA0133E0880F991FAA1FBB1F3A95D1F776
:1053D00084839583A683B783D10118964D915D91FF
:1053E0006D917C911B97DB01CA0143E0880F991FE7
:1053F000AA1FBB1F4A95D1F780879187A287B387E1
:10540000D1011C964D915D916D917C911F97DB01AF
:10541000CA0153E0880F991FAA1FBB1F5A95D1F7E5
:1054200084879587A687B787F1016485758586850A
:1054300097850E94473A6093B30B7093B40B8093A7
:10544000B50B9093B60BD10192962D913D914D9154
:105450005C9195970E949F399B01AC016093B70BBB
:105460007093B80B8093B90B9093BA0B60E070E027
:1054700080EA9FE30E949F396093BB0B7093BC0B43
:105480008093BD0B9093BE0B1092AF0B1092B00B9C
:105490001092B10B1092B20B11FD02C003FF1DC0A0
:1054A0006091CC0B7091CD0B8091CE0B9091CF0B76
:1054B0006093C40B7093C50B8093C60B9093C70B7E
:1054C0009B01AC010E94F73BF101668B778B808FCB
:1054D000918F077F0093AE0B11C0D10156966D914D
:1054E0007D918D919C9159970E94963C6093C40B3D
:1054F0007093C50B8093C60B9093C70BB2E1BE9D12
:10550000C001BF9D900D1124FC01E55FF44F7F01A8
:10551000118A8091700281FF1DC0D10151968C913A
:10552000519785FF17C09E962D913D914D915C91AD
:10553000D19760E070E080E89FE30E949F3960931C
:10554000D80B7093D90B8093DA0B9093DB0B21E08F
:10555000F701218B1092C00B1092C10B1092C20B5D
:105560001092C30BD1015E968D919D910D90BC91CF
:10557000A02D89839A83AB83BC839C01AD0160E03D
:1055800070E080E09FE30E949F396D837E838F836C
:105590009887F10142A053A064A075A086889788DF
:1055A000A08CB18C11FF44C0F2E0F093BF0BA501B9
:1055B00094010E94F73B9B01AC01C301B2010E9420
:1055C0009F386B017C0120E030E0A9010E949539F1
:1055D00087FF1DC029813A814B815C81CA01B901D5
:1055E0000E94A038A30192010E94F73B9B01AC01ED
:1055F000C501B4010E949F380E94963C6093CC0B79
:105600007093CD0B8093CE0B9093CF0BABC1C09218
:10561000C00BD092C10BE092C20BF092C30B109260
:10562000CC0B1092CD0B1092CE0B1092CF0B9AC1D7
:105630001092BF0B4092D00B5092D10B6092D20BC4
:105640007092D30B12FF0CC01092CC0B1092CD0BAA
:105650001092CE0B1092CF0BC12CD12C760124C00E
:10566000E091FB02EF5FE43209F4E0E08091940AFC
:10567000E81759F026E32E9FF0011124E450FD4F66
:10568000C688D788E08CF18C03C0C12CD12C760160
:10569000C701B6010E94963C6093CC0B7093CD0B72
:1056A0008093CE0B9093CF0BC1010E941A1C698B83
:1056B0007A8B8B8B9C8B9B01AC010E94F73B69879B
:1056C0007A878B879C879B01AC01C501B4010E943E
:1056D000B73B18160CF070C029853A854B855C8560
:1056E000C501B4010E949F389B01AC016D817E8190
:1056F0008F8198850E94F73B9B01AC01C301B201E9
:105700000E949F386093D00B7093D10B8093D20B83
:105710009093D30B20E030E0A9010E949539181630
:105720002CF132E03093BF0B29813A814B815C81AF
:10573000CA01B9010E94A038A30192010E94F73B5F
:105740009B01AC01C501B4010E949F380E94963CA8
:105750006093CC0B7093CD0B8093CE0B9093CF0BBB
:105760008091AE0B88608093AE0BFCC0A7019601C0
:1057700069857A858B859C850E949F389B01AC0149
:105780006D817E818F8198850E94F73B6093D40B59
:105790007093D50B8093D60B9093D70B89899A89F8
:1057A000AB89BC898093C80B9093C90BA093CA0B9B
:1057B000B093CB0B93E0BBC0A7019601C501B40128
:1057C0000E949F389B01AC016D817E818F819885FD
:1057D0000E94F73B9B01AC01C301B2010E94A038BB
:1057E00020E030E040E05FE30E94F73B6D877E877A
:1057F0008F87988B20E030E0A9010E94B73B1816F4
:105800000CF098C0A30192016D857E858F859889E3
:105810000E94953987FF8AC0A701960169857A851C
:105820008B859C850E949F389B01AC016D817E8198
:105830008F8198850E94F73B6093D40B7093D50BB2
:105840008093D60B9093D70B2D853E854F85588935
:105850000E94953987FF39C029893A894B895C892B
:105860002093C80B3093C90B4093CA0B5093CB0BBA
:1058700029853A854B855C85C501B4010E9495391F
:10588000811104C031E03093BF0B6CC0A5019401BD
:1058900069857A858B859C850E949F389B01AC0128
:1058A0006D817E818F8198850E94F73B9B01AC01C1
:1058B000C301B2010E949F386093D00B7093D10B4B
:1058C0008093D20B9093D30B4DC08D859E85AF8571
:1058D000B8898093D00B9093D10BA093D20BB09347
:1058E000D30B8093D40B9093D50BA093D60BB0938E
:1058F000D70B29813A814B815C81CA01B9010E9491
:10590000A0382D853E854F8558890E94F73BA70119
:1059100096010E94A0380E94963C6093C80B709339
:10592000C90B8093CA0B9093CB0B1CC092E0909351
:10593000BF0B18C01092D00B1092D10B1092D20B4B
:105940001092D30B8091CC0B9091CD0BA091CE0BEC
:10595000B091CF0B8093C80B9093C90BA093CA0B47
:10596000B093CB0B186010931E02E0910A0BF8E085
:10597000EF9FD0011124BE8BAD8BFD01E654F54F96
:105980008091AD0B84832091DE0B3091DF0B3CAF17
:105990002BAFD9019296BC91BBA3F901F3A1FCA353
:1059A000D9019496BC91BDA3F901F5A1FEA3209164
:1059B000BB0B3091BC0B4091BD0B5091BE0B6BA14A
:1059C0007CA18B2F9F2F0E949F386FA778AB89AB4C
:1059D0009AAB20E030E0A9010E94953987FF04C00E
:1059E0001FA618AA19AA1AAA2091BF0B298B3091B9
:1059F000C40B39834091C50B4D835091C60B598719
:105A00008091C70B8D879091C80B9F8BA091C90B7C
:105A1000A88FB091CA0BB98FE091CB0BEA8FF091B0
:105A2000D00BFB8F2091D10B2C8F3091D20B3D8F5F
:105A30004091D30B4E8F5091D40B5FA38091D50B27
:105A400088A79091D60B99A7A091D70BAAA7B09140
:105A5000C00BBBA7E091C10BECA7F091C20BFDA757
:105A60002091C30B2EA73091CC0B3BAB4091CD0BBB
:105A70004CAB5091CE0B5DAB8091CF0B8EAB2BA07E
:105A80003CA00DA11EA18EE3C82E83ECD82E8EE281
:105A9000E82E89E3F82E412C512C3201CF8ED8A26A
:105AA000E9A2FAA23989313009F4F9C0ABADBCAD35
:105AB000313008F477C0333009F020C15E962D9163
:105AC0003D914D915C919197C701B6010E94F73BC2
:105AD0004B015C012F89388D498D5A8D69817D81FB
